{
  "_format": "hh-sol-artifact-1",
  "contractName": "RoiTokenSale",
  "sourceName": "contracts/RoiTokenSale.sol",
  "abi": [
    {
      "inputs": [
        {
          "internalType": "address",
          "name": "_usdcToken",
          "type": "address"
        },
        {
          "internalType": "address",
          "name": "_roiToken",
          "type": "address"
        },
        {
          "internalType": "uint256",
          "name": "_roiPerUSDC",
          "type": "uint256"
        },
        {
          "internalType": "uint256",
          "name": "_softCap",
          "type": "uint256"
        },
        {
          "internalType": "uint256",
          "name": "_hardCap",
          "type": "uint256"
        }
      ],
      "stateMutability": "nonpayable",
      "type": "constructor"
    },
    {
      "inputs": [
        {
          "internalType": "address",
          "name": "owner",
          "type": "address"
        }
      ],
      "name": "OwnableInvalidOwner",
      "type": "error"
    },
    {
      "inputs": [
        {
          "internalType": "address",
          "name": "account",
          "type": "address"
        }
      ],
      "name": "OwnableUnauthorizedAccount",
      "type": "error"
    },
    {
      "inputs": [
        {
          "internalType": "address",
          "name": "token",
          "type": "address"
        }
      ],
      "name": "SafeERC20FailedOperation",
      "type": "error"
    },
    {
      "anonymous": false,
      "inputs": [
        {
          "indexed": true,
          "internalType": "address",
          "name": "previousOwner",
          "type": "address"
        },
        {
          "indexed": true,
          "internalType": "address",
          "name": "newOwner",
          "type": "address"
        }
      ],
      "name": "OwnershipTransferred",
      "type": "event"
    },
    {
      "anonymous": false,
      "inputs": [
        {
          "indexed": false,
          "internalType": "uint256",
          "name": "amount",
          "type": "uint256"
        }
      ],
      "name": "ROIWithdrawn",
      "type": "event"
    },
    {
      "anonymous": false,
      "inputs": [
        {
          "indexed": true,
          "internalType": "address",
          "name": "buyer",
          "type": "address"
        },
        {
          "indexed": false,
          "internalType": "uint256",
          "name": "usdcAmount",
          "type": "uint256"
        },
        {
          "indexed": false,
          "internalType": "uint256",
          "name": "roiAmount",
          "type": "uint256"
        }
      ],
      "name": "TokensPurchased",
      "type": "event"
    },
    {
      "anonymous": false,
      "inputs": [
        {
          "indexed": false,
          "internalType": "uint256",
          "name": "amount",
          "type": "uint256"
        }
      ],
      "name": "USDCWithdrawn",
      "type": "event"
    },
    {
      "inputs": [
        {
          "internalType": "uint256",
          "name": "usdcAmount",
          "type": "uint256"
        }
      ],
      "name": "buy",
      "outputs": [],
      "stateMutability": "nonpayable",
      "type": "function"
    },
    {
      "inputs": [],
      "name": "hardCap",
      "outputs": [
        {
          "internalType": "uint256",
          "name": "",
          "type": "uint256"
        }
      ],
      "stateMutability": "view",
      "type": "function"
    },
    {
      "inputs": [],
      "name": "isHardCapReached",
      "outputs": [
        {
          "internalType": "bool",
          "name": "",
          "type": "bool"
        }
      ],
      "stateMutability": "view",
      "type": "function"
    },
    {
      "inputs": [],
      "name": "isSoftCapReached",
      "outputs": [
        {
          "internalType": "bool",
          "name": "",
          "type": "bool"
        }
      ],
      "stateMutability": "view",
      "type": "function"
    },
    {
      "inputs": [],
      "name": "owner",
      "outputs": [
        {
          "internalType": "address",
          "name": "",
          "type": "address"
        }
      ],
      "stateMutability": "view",
      "type": "function"
    },
    {
      "inputs": [],
      "name": "remainingToHardCap",
      "outputs": [
        {
          "internalType": "uint256",
          "name": "",
          "type": "uint256"
        }
      ],
      "stateMutability": "view",
      "type": "function"
    },
    {
      "inputs": [],
      "name": "renounceOwnership",
      "outputs": [],
      "stateMutability": "nonpayable",
      "type": "function"
    },
    {
      "inputs": [],
      "name": "roiPerUSDC",
      "outputs": [
        {
          "internalType": "uint256",
          "name": "",
          "type": "uint256"
        }
      ],
      "stateMutability": "view",
      "type": "function"
    },
    {
      "inputs": [],
      "name": "roiToken",
      "outputs": [
        {
          "internalType": "address",
          "name": "",
          "type": "address"
        }
      ],
      "stateMutability": "view",
      "type": "function"
    },
    {
      "inputs": [],
      "name": "softCap",
      "outputs": [
        {
          "internalType": "uint256",
          "name": "",
          "type": "uint256"
        }
      ],
      "stateMutability": "view",
      "type": "function"
    },
    {
      "inputs": [],
      "name": "totalRaised",
      "outputs": [
        {
          "internalType": "uint256",
          "name": "",
          "type": "uint256"
        }
      ],
      "stateMutability": "view",
      "type": "function"
    },
    {
      "inputs": [
        {
          "internalType": "address",
          "name": "newOwner",
          "type": "address"
        }
      ],
      "name": "transferOwnership",
      "outputs": [],
      "stateMutability": "nonpayable",
      "type": "function"
    },
    {
      "inputs": [],
      "name": "usdcToken",
      "outputs": [
        {
          "internalType": "address",
          "name": "",
          "type": "address"
        }
      ],
      "stateMutability": "view",
      "type": "function"
    },
    {
      "inputs": [
        {
          "internalType": "uint256",
          "name": "amount",
          "type": "uint256"
        }
      ],
      "name": "withdrawROI",
      "outputs": [],
      "stateMutability": "nonpayable",
      "type": "function"
    },
    {
      "inputs": [
        {
          "internalType": "uint256",
          "name": "amount",
          "type": "uint256"
        }
      ],
      "name": "withdrawUSDC",
      "outputs": [],
      "stateMutability": "nonpayable",
      "type": "function"
    }
  ],
  "bytecode": "0x60806040523480156200001157600080fd5b5060405162001a6938038062001a6983398181016040528101906200003791906200047f565b33600073ffffffffffffffffffffffffffffffffffffffff168173ffffffffffffffffffffffffffffffffffffffff1603620000ad5760006040517f1e4fbdf7000000000000000000000000000000000000000000000000000000008152600401620000a4919062000518565b60405180910390fd5b620000be816200031660201b60201c565b50600073ffffffffffffffffffffffffffffffffffffffff168573ffffffffffffffffffffffffffffffffffffffff160362000131576040517f08c379a00000000000000000000000000000000000000000000000000000000081526004016200012890620005bc565b60405180910390fd5b600073ffffffffffffffffffffffffffffffffffffffff168473ffffffffffffffffffffffffffffffffffffffff1603620001a3576040517f08c379a00000000000000000000000000000000000000000000000000000000081526004016200019a906200062e565b60405180910390fd5b60008311620001e9576040517f08c379a0000000000000000000000000000000000000000000000000000000008152600401620001e090620006c6565b60405180910390fd5b600082116200022f576040517f08c379a000000000000000000000000000000000000000000000000000000000815260040162000226906200075e565b60405180910390fd5b81811162000274576040517f08c379a00000000000000000000000000000000000000000000000000000000081526004016200026b90620007f6565b60405180910390fd5b84600160006101000a81548173ffffffffffffffffffffffffffffffffffffffff021916908373ffffffffffffffffffffffffffffffffffffffff16021790555083600260006101000a81548173ffffffffffffffffffffffffffffffffffffffff021916908373ffffffffffffffffffffffffffffffffffffffff160217905550826003819055508160048190555080600581905550505050505062000818565b60008060009054906101000a900473ffffffffffffffffffffffffffffffffffffffff169050816000806101000a81548173ffffffffffffffffffffffffffffffffffffffff021916908373ffffffffffffffffffffffffffffffffffffffff1602179055508173ffffffffffffffffffffffffffffffffffffffff168173ffffffffffffffffffffffffffffffffffffffff167f8be0079c531659141344cd1fd0a4f28419497f9722a3daafe3b4186f6b6457e060405160405180910390a35050565b600080fd5b600073ffffffffffffffffffffffffffffffffffffffff82169050919050565b60006200040c82620003df565b9050919050565b6200041e81620003ff565b81146200042a57600080fd5b50565b6000815190506200043e8162000413565b92915050565b6000819050919050565b620004598162000444565b81146200046557600080fd5b50565b60008151905062000479816200044e565b92915050565b600080600080600060a086880312156200049e576200049d620003da565b5b6000620004ae888289016200042d565b9550506020620004c1888289016200042d565b9450506040620004d48882890162000468565b9350506060620004e78882890162000468565b9250506080620004fa8882890162000468565b9150509295509295909350565b6200051281620003ff565b82525050565b60006020820190506200052f600083018462000507565b92915050565b600082825260208201905092915050565b7f5553444320746f6b656e20616464726573732063616e6e6f74206265207a657260008201527f6f00000000000000000000000000000000000000000000000000000000000000602082015250565b6000620005a460218362000535565b9150620005b18262000546565b604082019050919050565b60006020820190508181036000830152620005d78162000595565b9050919050565b7f524f4920746f6b656e20616464726573732063616e6e6f74206265207a65726f600082015250565b60006200061660208362000535565b91506200062382620005de565b602082019050919050565b60006020820190508181036000830152620006498162000607565b9050919050565b7f524f49207065722055534443206d75737420626520677265617465722074686160008201527f6e207a65726f0000000000000000000000000000000000000000000000000000602082015250565b6000620006ae60268362000535565b9150620006bb8262000650565b604082019050919050565b60006020820190508181036000830152620006e1816200069f565b9050919050565b7f536f667420636170206d7573742062652067726561746572207468616e207a6560008201527f726f000000000000000000000000000000000000000000000000000000000000602082015250565b60006200074660228362000535565b91506200075382620006e8565b604082019050919050565b60006020820190508181036000830152620007798162000737565b9050919050565b7f4861726420636170206d7573742062652067726561746572207468616e20736f60008201527f6674206361700000000000000000000000000000000000000000000000000000602082015250565b6000620007de60268362000535565b9150620007eb8262000780565b604082019050919050565b600060208201905081810360008301526200081181620007cf565b9050919050565b61124180620008286000396000f3fe608060405234801561001057600080fd5b50600436106100f55760003560e01c806380d32f8511610097578063d96a094a11610066578063d96a094a1461022e578063db81f99b1461024a578063f2fde38b14610266578063fb86a40414610282576100f5565b806380d32f85146101b65780638da5cb5b146101d4578063906a26e0146101f2578063c5c4744c14610210576100f5565b80634e7e772b116100d35780634e7e772b14610154578063688d392214610170578063715018a61461018e57806374ef7cf714610198576100f5565b806311eac855146100fa5780633966041b146101185780634e40433d14610136575b600080fd5b6101026102a0565b60405161010f9190610d44565b60405180910390f35b6101206102c6565b60405161012d9190610d78565b60405180910390f35b61013e6102f2565b60405161014b9190610d44565b60405180910390f35b61016e60048036038101906101699190610dc4565b610318565b005b6101786104cf565b6040516101859190610e0c565b60405180910390f35b6101966104de565b005b6101a06104f2565b6040516101ad9190610d78565b60405180910390f35b6101be6104f8565b6040516101cb9190610e0c565b60405180910390f35b6101dc610507565b6040516101e99190610d44565b60405180910390f35b6101fa610530565b6040516102079190610d78565b60405180910390f35b610218610536565b6040516102259190610d78565b60405180910390f35b61024860048036038101906102439190610dc4565b61053c565b005b610264600480360381019061025f9190610dc4565b6107ca565b005b610280600480360381019061027b9190610e53565b610981565b005b61028a610a07565b6040516102979190610d78565b60405180910390f35b600160009054906101000a900473ffffffffffffffffffffffffffffffffffffffff1681565b6000600554600654106102dc57600090506102ef565b6006546005546102ec9190610eaf565b90505b90565b600260009054906101000a900473ffffffffffffffffffffffffffffffffffffffff1681565b610320610a0d565b60008111610363576040517f08c379a000000000000000000000000000000000000000000000000000000000815260040161035a90610f40565b60405180910390fd5b80600260009054906101000a900473ffffffffffffffffffffffffffffffffffffffff1673ffffffffffffffffffffffffffffffffffffffff166370a08231306040518263ffffffff1660e01b81526004016103bf9190610d44565b602060405180830381865afa1580156103dc573d6000803e3d6000fd5b505050506040513d601f19601f820116820180604052508101906104009190610f75565b1015610441576040517f08c379a000000000000000000000000000000000000000000000000000000000815260040161043890611014565b60405180910390fd5b61049561044c610507565b82600260009054906101000a900473ffffffffffffffffffffffffffffffffffffffff1673ffffffffffffffffffffffffffffffffffffffff16610a949092919063ffffffff16565b7f4f8a9b8c23f945f3068f67d60ad2e7137a35801ae233b9091cfbdde0ecb09df4816040516104c49190610d78565b60405180910390a150565b60006005546006541015905090565b6104e6610a0d565b6104f06000610b13565b565b60035481565b60006004546006541015905090565b60008060009054906101000a900473ffffffffffffffffffffffffffffffffffffffff16905090565b60045481565b60065481565b6000811161057f576040517f08c379a000000000000000000000000000000000000000000000000000000000815260040161057690610f40565b60405180910390fd5b600554816006546105909190611034565b11156105d1576040517f08c379a00000000000000000000000000000000000000000000000000000000081526004016105c8906110b4565b60405180910390fd5b6000600354826105e191906110d4565b905080600260009054906101000a900473ffffffffffffffffffffffffffffffffffffffff1673ffffffffffffffffffffffffffffffffffffffff166370a08231306040518263ffffffff1660e01b815260040161063f9190610d44565b602060405180830381865afa15801561065c573d6000803e3d6000fd5b505050506040513d601f19601f820116820180604052508101906106809190610f75565b10156106c1576040517f08c379a00000000000000000000000000000000000000000000000000000000081526004016106b890611014565b60405180910390fd5b610710333084600160009054906101000a900473ffffffffffffffffffffffffffffffffffffffff1673ffffffffffffffffffffffffffffffffffffffff16610bd7909392919063ffffffff16565b81600660008282546107229190611034565b925050819055506107763382600260009054906101000a900473ffffffffffffffffffffffffffffffffffffffff1673ffffffffffffffffffffffffffffffffffffffff16610a949092919063ffffffff16565b3373ffffffffffffffffffffffffffffffffffffffff167f8fafebcaf9d154343dad25669bfa277f4fbacd7ac6b0c4fed522580e040a0f3383836040516107be929190611116565b60405180910390a25050565b6107d2610a0d565b60008111610815576040517f08c379a000000000000000000000000000000000000000000000000000000000815260040161080c90610f40565b60405180910390fd5b80600160009054906101000a900473ffffffffffffffffffffffffffffffffffffffff1673ffffffffffffffffffffffffffffffffffffffff166370a08231306040518263ffffffff1660e01b81526004016108719190610d44565b602060405180830381865afa15801561088e573d6000803e3d6000fd5b505050506040513d601f19601f820116820180604052508101906108b29190610f75565b10156108f3576040517f08c379a00000000000000000000000000000000000000000000000000000000081526004016108ea9061118b565b60405180910390fd5b6109476108fe610507565b82600160009054906101000a900473ffffffffffffffffffffffffffffffffffffffff1673ffffffffffffffffffffffffffffffffffffffff16610a949092919063ffffffff16565b7f4eacc637a5fb1dbbc94595a9432e0a8d75ae5d51d189021963a6cc8575465ddf816040516109769190610d78565b60405180910390a150565b610989610a0d565b600073ffffffffffffffffffffffffffffffffffffffff168173ffffffffffffffffffffffffffffffffffffffff16036109fb5760006040517f1e4fbdf70000000000000000000000000000000000000000000000000000000081526004016109f29190610d44565b60405180910390fd5b610a0481610b13565b50565b60055481565b610a15610c59565b73ffffffffffffffffffffffffffffffffffffffff16610a33610507565b73ffffffffffffffffffffffffffffffffffffffff1614610a9257610a56610c59565b6040517f118cdaa7000000000000000000000000000000000000000000000000000000008152600401610a899190610d44565b60405180910390fd5b565b610b0e838473ffffffffffffffffffffffffffffffffffffffff1663a9059cbb8585604051602401610ac79291906111ab565b604051602081830303815290604052915060e01b6020820180517bffffffffffffffffffffffffffffffffffffffffffffffffffffffff8381831617835250505050610c61565b505050565b60008060009054906101000a900473ffffffffffffffffffffffffffffffffffffffff169050816000806101000a81548173ffffffffffffffffffffffffffffffffffffffff021916908373ffffffffffffffffffffffffffffffffffffffff1602179055508173ffffffffffffffffffffffffffffffffffffffff168173ffffffffffffffffffffffffffffffffffffffff167f8be0079c531659141344cd1fd0a4f28419497f9722a3daafe3b4186f6b6457e060405160405180910390a35050565b610c53848573ffffffffffffffffffffffffffffffffffffffff166323b872dd868686604051602401610c0c939291906111d4565b604051602081830303815290604052915060e01b6020820180517bffffffffffffffffffffffffffffffffffffffffffffffffffffffff8381831617835250505050610c61565b50505050565b600033905090565b600080602060008451602086016000885af180610c84576040513d6000823e3d81fd5b3d925060005191505060008214610c9f576001811415610cbb565b60008473ffffffffffffffffffffffffffffffffffffffff163b145b15610cfd57836040517f5274afe7000000000000000000000000000000000000000000000000000000008152600401610cf49190610d44565b60405180910390fd5b50505050565b600073ffffffffffffffffffffffffffffffffffffffff82169050919050565b6000610d2e82610d03565b9050919050565b610d3e81610d23565b82525050565b6000602082019050610d596000830184610d35565b92915050565b6000819050919050565b610d7281610d5f565b82525050565b6000602082019050610d8d6000830184610d69565b92915050565b600080fd5b610da181610d5f565b8114610dac57600080fd5b50565b600081359050610dbe81610d98565b92915050565b600060208284031215610dda57610dd9610d93565b5b6000610de884828501610daf565b91505092915050565b60008115159050919050565b610e0681610df1565b82525050565b6000602082019050610e216000830184610dfd565b92915050565b610e3081610d23565b8114610e3b57600080fd5b50565b600081359050610e4d81610e27565b92915050565b600060208284031215610e6957610e68610d93565b5b6000610e7784828501610e3e565b91505092915050565b7f4e487b7100000000000000000000000000000000000000000000000000000000600052601160045260246000fd5b6000610eba82610d5f565b9150610ec583610d5f565b9250828203905081811115610edd57610edc610e80565b5b92915050565b600082825260208201905092915050565b7f416d6f756e74206d7573742062652067726561746572207468616e207a65726f600082015250565b6000610f2a602083610ee3565b9150610f3582610ef4565b602082019050919050565b60006020820190508181036000830152610f5981610f1d565b9050919050565b600081519050610f6f81610d98565b92915050565b600060208284031215610f8b57610f8a610d93565b5b6000610f9984828501610f60565b91505092915050565b7f4e6f7420656e6f75676820524f4920746f6b656e7320696e20636f6e7472616360008201527f7400000000000000000000000000000000000000000000000000000000000000602082015250565b6000610ffe602183610ee3565b915061100982610fa2565b604082019050919050565b6000602082019050818103600083015261102d81610ff1565b9050919050565b600061103f82610d5f565b915061104a83610d5f565b925082820190508082111561106257611061610e80565b5b92915050565b7f5075726368617365206578636565647320686172642063617000000000000000600082015250565b600061109e601983610ee3565b91506110a982611068565b602082019050919050565b600060208201905081810360008301526110cd81611091565b9050919050565b60006110df82610d5f565b91506110ea83610d5f565b92508282026110f881610d5f565b9150828204841483151761110f5761110e610e80565b5b5092915050565b600060408201905061112b6000830185610d69565b6111386020830184610d69565b9392505050565b7f4e6f7420656e6f756768205553444320696e20636f6e74726163740000000000600082015250565b6000611175601b83610ee3565b91506111808261113f565b602082019050919050565b600060208201905081810360008301526111a481611168565b9050919050565b60006040820190506111c06000830185610d35565b6111cd6020830184610d69565b9392505050565b60006060820190506111e96000830186610d35565b6111f66020830185610d35565b6112036040830184610d69565b94935050505056fea26469706673582212204719f3cbaf139e82e297f1a7ff0a5d226ef9d182b0ce084ec6e164af31b77fe664736f6c63430008140033",
  "linkReferences": {},
  "deployedLinkReferences": {}
}